{
  "_format": "hh-sol-artifact-1",
  "contractName": "Collection",
  "sourceName": "contracts/Collection.sol",
  "abi": [
    {
      "inputs": [
        {
          "internalType": "string",
          "name": "_name",
          "type": "string"
        },
        {
          "internalType": "string",
          "name": "_symbol",
          "type": "string"
        },
        {
          "internalType": "string",
          "name": "_description",
          "type": "string"
        },
        {
          "internalType": "string",
          "name": "_imageURL",
          "type": "string"
        },
        {
          "internalType": "string",
          "name": "_blockchainType",
          "type": "string"
        }
      ],
      "stateMutability": "nonpayable",
      "type": "constructor"
    },
    {
      "inputs": [
        {
          "internalType": "address",
          "name": "sender",
          "type": "address"
        },
        {
          "internalType": "uint256",
          "name": "tokenId",
          "type": "uint256"
        },
        {
          "internalType": "address",
          "name": "owner",
          "type": "address"
        }
      ],
      "name": "ERC721IncorrectOwner",
      "type": "error"
    },
    {
      "inputs": [
        {
          "internalType": "address",
          "name": "operator",
          "type": "address"
        },
        {
          "internalType": "uint256",
          "name": "tokenId",
          "type": "uint256"
        }
      ],
      "name": "ERC721InsufficientApproval",
      "type": "error"
    },
    {
      "inputs": [
        {
          "internalType": "address",
          "name": "approver",
          "type": "address"
        }
      ],
      "name": "ERC721InvalidApprover",
      "type": "error"
    },
    {
      "inputs": [
        {
          "internalType": "address",
          "name": "operator",
          "type": "address"
        }
      ],
      "name": "ERC721InvalidOperator",
      "type": "error"
    },
    {
      "inputs": [
        {
          "internalType": "address",
          "name": "owner",
          "type": "address"
        }
      ],
      "name": "ERC721InvalidOwner",
      "type": "error"
    },
    {
      "inputs": [
        {
          "internalType": "address",
          "name": "receiver",
          "type": "address"
        }
      ],
      "name": "ERC721InvalidReceiver",
      "type": "error"
    },
    {
      "inputs": [
        {
          "internalType": "address",
          "name": "sender",
          "type": "address"
        }
      ],
      "name": "ERC721InvalidSender",
      "type": "error"
    },
    {
      "inputs": [
        {
          "internalType": "uint256",
          "name": "tokenId",
          "type": "uint256"
        }
      ],
      "name": "ERC721NonexistentToken",
      "type": "error"
    },
    {
      "inputs": [
        {
          "internalType": "address",
          "name": "owner",
          "type": "address"
        }
      ],
      "name": "OwnableInvalidOwner",
      "type": "error"
    },
    {
      "inputs": [
        {
          "internalType": "address",
          "name": "account",
          "type": "address"
        }
      ],
      "name": "OwnableUnauthorizedAccount",
      "type": "error"
    },
    {
      "anonymous": false,
      "inputs": [
        {
          "indexed": true,
          "internalType": "address",
          "name": "owner",
          "type": "address"
        },
        {
          "indexed": true,
          "internalType": "address",
          "name": "approved",
          "type": "address"
        },
        {
          "indexed": true,
          "internalType": "uint256",
          "name": "tokenId",
          "type": "uint256"
        }
      ],
      "name": "Approval",
      "type": "event"
    },
    {
      "anonymous": false,
      "inputs": [
        {
          "indexed": true,
          "internalType": "address",
          "name": "owner",
          "type": "address"
        },
        {
          "indexed": true,
          "internalType": "address",
          "name": "operator",
          "type": "address"
        },
        {
          "indexed": false,
          "internalType": "bool",
          "name": "approved",
          "type": "bool"
        }
      ],
      "name": "ApprovalForAll",
      "type": "event"
    },
    {
      "anonymous": false,
      "inputs": [
        {
          "indexed": false,
          "internalType": "uint256",
          "name": "_fromTokenId",
          "type": "uint256"
        },
        {
          "indexed": false,
          "internalType": "uint256",
          "name": "_toTokenId",
          "type": "uint256"
        }
      ],
      "name": "BatchMetadataUpdate",
      "type": "event"
    },
    {
      "anonymous": false,
      "inputs": [
        {
          "indexed": true,
          "internalType": "address",
          "name": "oldOwner",
          "type": "address"
        },
        {
          "indexed": true,
          "internalType": "address",
          "name": "newOwner",
          "type": "address"
        }
      ],
      "name": "CollectionOwnershipTransferred",
      "type": "event"
    },
    {
      "anonymous": false,
      "inputs": [
        {
          "indexed": false,
          "internalType": "uint256",
          "name": "_tokenId",
          "type": "uint256"
        }
      ],
      "name": "MetadataUpdate",
      "type": "event"
    },
    {
      "anonymous": false,
      "inputs": [
        {
          "indexed": true,
          "internalType": "uint256",
          "name": "tokenId",
          "type": "uint256"
        },
        {
          "indexed": true,
          "internalType": "address",
          "name": "owner",
          "type": "address"
        },
        {
          "indexed": false,
          "internalType": "string",
          "name": "tokenURI",
          "type": "string"
        }
      ],
      "name": "NFTMinted",
      "type": "event"
    },
    {
      "anonymous": false,
      "inputs": [
        {
          "indexed": true,
          "internalType": "address",
          "name": "previousOwner",
          "type": "address"
        },
        {
          "indexed": true,
          "internalType": "address",
          "name": "newOwner",
          "type": "address"
        }
      ],
      "name": "OwnershipTransferred",
      "type": "event"
    },
    {
      "anonymous": false,
      "inputs": [
        {
          "indexed": true,
          "internalType": "address",
          "name": "from",
          "type": "address"
        },
        {
          "indexed": true,
          "internalType": "address",
          "name": "to",
          "type": "address"
        },
        {
          "indexed": true,
          "internalType": "uint256",
          "name": "tokenId",
          "type": "uint256"
        }
      ],
      "name": "Transfer",
      "type": "event"
    },
    {
      "inputs": [
        {
          "internalType": "address",
          "name": "to",
          "type": "address"
        },
        {
          "internalType": "uint256",
          "name": "tokenId",
          "type": "uint256"
        }
      ],
      "name": "approve",
      "outputs": [],
      "stateMutability": "nonpayable",
      "type": "function"
    },
    {
      "inputs": [
        {
          "internalType": "address",
          "name": "owner",
          "type": "address"
        }
      ],
      "name": "balanceOf",
      "outputs": [
        {
          "internalType": "uint256",
          "name": "",
          "type": "uint256"
        }
      ],
      "stateMutability": "view",
      "type": "function"
    },
    {
      "inputs": [],
      "name": "blockchainType",
      "outputs": [
        {
          "internalType": "string",
          "name": "",
          "type": "string"
        }
      ],
      "stateMutability": "view",
      "type": "function"
    },
    {
      "inputs": [],
      "name": "collectionDescription",
      "outputs": [
        {
          "internalType": "string",
          "name": "",
          "type": "string"
        }
      ],
      "stateMutability": "view",
      "type": "function"
    },
    {
      "inputs": [],
      "name": "collectionImageURL",
      "outputs": [
        {
          "internalType": "string",
          "name": "",
          "type": "string"
        }
      ],
      "stateMutability": "view",
      "type": "function"
    },
    {
      "inputs": [],
      "name": "collectionName",
      "outputs": [
        {
          "internalType": "string",
          "name": "",
          "type": "string"
        }
      ],
      "stateMutability": "view",
      "type": "function"
    },
    {
      "inputs": [],
      "name": "creator",
      "outputs": [
        {
          "internalType": "address",
          "name": "",
          "type": "address"
        }
      ],
      "stateMutability": "view",
      "type": "function"
    },
    {
      "inputs": [
        {
          "internalType": "uint256",
          "name": "tokenId",
          "type": "uint256"
        }
      ],
      "name": "getApproved",
      "outputs": [
        {
          "internalType": "address",
          "name": "",
          "type": "address"
        }
      ],
      "stateMutability": "view",
      "type": "function"
    },
    {
      "inputs": [],
      "name": "getCollectionInfo",
      "outputs": [
        {
          "internalType": "string",
          "name": "",
          "type": "string"
        },
        {
          "internalType": "string",
          "name": "",
          "type": "string"
        },
        {
          "internalType": "string",
          "name": "",
          "type": "string"
        },
        {
          "internalType": "string",
          "name": "",
          "type": "string"
        },
        {
          "internalType": "address",
          "name": "",
          "type": "address"
        }
      ],
      "stateMutability": "view",
      "type": "function"
    },
    {
      "inputs": [
        {
          "internalType": "address",
          "name": "owner",
          "type": "address"
        },
        {
          "internalType": "address",
          "name": "operator",
          "type": "address"
        }
      ],
      "name": "isApprovedForAll",
      "outputs": [
        {
          "internalType": "bool",
          "name": "",
          "type": "bool"
        }
      ],
      "stateMutability": "view",
      "type": "function"
    },
    {
      "inputs": [
        {
          "internalType": "string",
          "name": "tokenURI",
          "type": "string"
        }
      ],
      "name": "mintNFT",
      "outputs": [
        {
          "internalType": "uint256",
          "name": "",
          "type": "uint256"
        }
      ],
      "stateMutability": "nonpayable",
      "type": "function"
    },
    {
      "inputs": [],
      "name": "name",
      "outputs": [
        {
          "internalType": "string",
          "name": "",
          "type": "string"
        }
      ],
      "stateMutability": "view",
      "type": "function"
    },
    {
      "inputs": [],
      "name": "owner",
      "outputs": [
        {
          "internalType": "address",
          "name": "",
          "type": "address"
        }
      ],
      "stateMutability": "view",
      "type": "function"
    },
    {
      "inputs": [
        {
          "internalType": "uint256",
          "name": "tokenId",
          "type": "uint256"
        }
      ],
      "name": "ownerOf",
      "outputs": [
        {
          "internalType": "address",
          "name": "",
          "type": "address"
        }
      ],
      "stateMutability": "view",
      "type": "function"
    },
    {
      "inputs": [],
      "name": "renounceOwnership",
      "outputs": [],
      "stateMutability": "nonpayable",
      "type": "function"
    },
    {
      "inputs": [
        {
          "internalType": "address",
          "name": "from",
          "type": "address"
        },
        {
          "internalType": "address",
          "name": "to",
          "type": "address"
        },
        {
          "internalType": "uint256",
          "name": "tokenId",
          "type": "uint256"
        }
      ],
      "name": "safeTransferFrom",
      "outputs": [],
      "stateMutability": "nonpayable",
      "type": "function"
    },
    {
      "inputs": [
        {
          "internalType": "address",
          "name": "from",
          "type": "address"
        },
        {
          "internalType": "address",
          "name": "to",
          "type": "address"
        },
        {
          "internalType": "uint256",
          "name": "tokenId",
          "type": "uint256"
        },
        {
          "internalType": "bytes",
          "name": "data",
          "type": "bytes"
        }
      ],
      "name": "safeTransferFrom",
      "outputs": [],
      "stateMutability": "nonpayable",
      "type": "function"
    },
    {
      "inputs": [
        {
          "internalType": "address",
          "name": "operator",
          "type": "address"
        },
        {
          "internalType": "bool",
          "name": "approved",
          "type": "bool"
        }
      ],
      "name": "setApprovalForAll",
      "outputs": [],
      "stateMutability": "nonpayable",
      "type": "function"
    },
    {
      "inputs": [
        {
          "internalType": "bytes4",
          "name": "interfaceId",
          "type": "bytes4"
        }
      ],
      "name": "supportsInterface",
      "outputs": [
        {
          "internalType": "bool",
          "name": "",
          "type": "bool"
        }
      ],
      "stateMutability": "view",
      "type": "function"
    },
    {
      "inputs": [],
      "name": "symbol",
      "outputs": [
        {
          "internalType": "string",
          "name": "",
          "type": "string"
        }
      ],
      "stateMutability": "view",
      "type": "function"
    },
    {
      "inputs": [
        {
          "internalType": "uint256",
          "name": "tokenId",
          "type": "uint256"
        }
      ],
      "name": "tokenURI",
      "outputs": [
        {
          "internalType": "string",
          "name": "",
          "type": "string"
        }
      ],
      "stateMutability": "view",
      "type": "function"
    },
    {
      "inputs": [
        {
          "internalType": "address",
          "name": "newOwner",
          "type": "address"
        }
      ],
      "name": "transferCollectionOwnership",
      "outputs": [],
      "stateMutability": "nonpayable",
      "type": "function"
    },
    {
      "inputs": [
        {
          "internalType": "address",
          "name": "from",
          "type": "address"
        },
        {
          "internalType": "address",
          "name": "to",
          "type": "address"
        },
        {
          "internalType": "uint256",
          "name": "tokenId",
          "type": "uint256"
        }
      ],
      "name": "transferFrom",
      "outputs": [],
      "stateMutability": "nonpayable",
      "type": "function"
    },
    {
      "inputs": [
        {
          "internalType": "address",
          "name": "newOwner",
          "type": "address"
        }
      ],
      "name": "transferOwnership",
      "outputs": [],
      "stateMutability": "nonpayable",
      "type": "function"
    }
  ],
  "bytecode": "0x608060405234801561001057600080fd5b506040516139033803806139038339818101604052810190610032919061039f565b338585816000908161004491906106c7565b50806001908161005491906106c7565b505050600073ffffffffffffffffffffffffffffffffffffffff168173ffffffffffffffffffffffffffffffffffffffff16036100c95760006040517f1e4fbdf70000000000000000000000000000000000000000000000000000000081526004016100c091906107da565b60405180910390fd5b6100d88161016460201b60201c565b5084600990816100e891906106c7565b5082600a90816100f891906106c7565b5081600c908161010891906106c7565b5033600b60006101000a81548173ffffffffffffffffffffffffffffffffffffffff021916908373ffffffffffffffffffffffffffffffffffffffff16021790555080600d908161015991906106c7565b5050505050506107f5565b6000600760009054906101000a900473ffffffffffffffffffffffffffffffffffffffff16905081600760006101000a81548173ffffffffffffffffffffffffffffffffffffffff021916908373ffffffffffffffffffffffffffffffffffffffff1602179055508173ffffffffffffffffffffffffffffffffffffffff168173ffffffffffffffffffffffffffffffffffffffff167f8be0079c531659141344cd1fd0a4f28419497f9722a3daafe3b4186f6b6457e060405160405180910390a35050565b6000604051905090565b600080fd5b600080fd5b600080fd5b600080fd5b6000601f19601f8301169050919050565b7f4e487b7100000000000000000000000000000000000000000000000000000000600052604160045260246000fd5b61029182610248565b810181811067ffffffffffffffff821117156102b0576102af610259565b5b80604052505050565b60006102c361022a565b90506102cf8282610288565b919050565b600067ffffffffffffffff8211156102ef576102ee610259565b5b6102f882610248565b9050602081019050919050565b60005b83811015610323578082015181840152602081019050610308565b60008484015250505050565b600061034261033d846102d4565b6102b9565b90508281526020810184848401111561035e5761035d610243565b5b610369848285610305565b509392505050565b600082601f8301126103865761038561023e565b5b815161039684826020860161032f565b91505092915050565b600080600080600060a086880312156103bb576103ba610234565b5b600086015167ffffffffffffffff8111156103d9576103d8610239565b5b6103e588828901610371565b955050602086015167ffffffffffffffff81111561040657610405610239565b5b61041288828901610371565b945050604086015167ffffffffffffffff81111561043357610432610239565b5b61043f88828901610371565b935050606086015167ffffffffffffffff8111156104605761045f610239565b5b61046c88828901610371565b925050608086015167ffffffffffffffff81111561048d5761048c610239565b5b61049988828901610371565b9150509295509295909350565b600081519050919050565b7f4e487b7100000000000000000000000000000000000000000000000000000000600052602260045260246000fd5b600060028204905060018216806104f857607f821691505b60208210810361050b5761050a6104b1565b5b50919050565b60008190508160005260206000209050919050565b60006020601f8301049050919050565b600082821b905092915050565b6000600883026105737fffffffffffffffffffffffffffffffffffffffffffffffffffffffffffffffff82610536565b61057d8683610536565b95508019841693508086168417925050509392505050565b6000819050919050565b6000819050919050565b60006105c46105bf6105ba84610595565b61059f565b610595565b9050919050565b6000819050919050565b6105de836105a9565b6105f26105ea826105cb565b848454610543565b825550505050565b600090565b6106076105fa565b6106128184846105d5565b505050565b5b818110156106365761062b6000826105ff565b600181019050610618565b5050565b601f82111561067b5761064c81610511565b61065584610526565b81016020851015610664578190505b61067861067085610526565b830182610617565b50505b505050565b600082821c905092915050565b600061069e60001984600802610680565b1980831691505092915050565b60006106b7838361068d565b9150826002028217905092915050565b6106d0826104a6565b67ffffffffffffffff8111156106e9576106e8610259565b5b6106f382546104e0565b6106fe82828561063a565b600060209050601f831160018114610731576000841561071f578287015190505b61072985826106ab565b865550610791565b601f19841661073f86610511565b60005b8281101561076757848901518255600182019150602085019450602081019050610742565b868310156107845784890151610780601f89168261068d565b8355505b6001600288020188555050505b505050505050565b600073ffffffffffffffffffffffffffffffffffffffff82169050919050565b60006107c482610799565b9050919050565b6107d4816107b9565b82525050565b60006020820190506107ef60008301846107cb565b92915050565b6130ff806108046000396000f3fe608060405234801561001057600080fd5b50600436106101585760003560e01c806370a08231116100c3578063c87b56dd1161007c578063c87b56dd146103a5578063e2c6875c146103d5578063e5326ab1146103f3578063e985e9c514610411578063f2fde38b14610441578063fb37e8831461045d57610158565b806370a08231146102f7578063715018a6146103275780638da5cb5b1461033157806395d89b411461034f578063a22cb4651461036d578063b88d4fde1461038957610158565b80631a77447c116101155780631a77447c1461023157806323b872dd146102535780632a974e5f1461026f57806342842e0e1461028d578063429865ba146102a95780636352211e146102c757610158565b806301ffc9a71461015d57806302d05d3f1461018d57806304dad935146101ab57806306fdde03146101c7578063081812fc146101e5578063095ea7b314610215575b600080fd5b610177600480360381019061017291906123b7565b61048d565b60405161018491906123ff565b60405180910390f35b6101956104ee565b6040516101a2919061245b565b60405180910390f35b6101c560048036038101906101c091906124a2565b610514565b005b6101cf610769565b6040516101dc919061255f565b60405180910390f35b6101ff60048036038101906101fa91906125b7565b6107fb565b60405161020c919061245b565b60405180910390f35b61022f600480360381019061022a91906125e4565b610817565b005b61023961082d565b60405161024a959493929190612624565b60405180910390f35b61026d60048036038101906102689190612693565b610aa1565b005b610277610ba3565b604051610284919061255f565b60405180910390f35b6102a760048036038101906102a29190612693565b610c31565b005b6102b1610c51565b6040516102be919061255f565b60405180910390f35b6102e160048036038101906102dc91906125b7565b610cdf565b6040516102ee919061245b565b60405180910390f35b610311600480360381019061030c91906124a2565b610cf1565b60405161031e91906126f5565b60405180910390f35b61032f610dab565b005b610339610dbf565b604051610346919061245b565b60405180910390f35b610357610de9565b604051610364919061255f565b60405180910390f35b6103876004803603810190610382919061273c565b610e7b565b005b6103a3600480360381019061039e91906128b1565b610e91565b005b6103bf60048036038101906103ba91906125b7565b610eb6565b6040516103cc919061255f565b60405180910390f35b6103dd610fc9565b6040516103ea919061255f565b60405180910390f35b6103fb611057565b604051610408919061255f565b60405180910390f35b61042b60048036038101906104269190612934565b6110e5565b60405161043891906123ff565b60405180910390f35b61045b600480360381019061045691906124a2565b611179565b005b61047760048036038101906104729190612a15565b6111ff565b60405161048491906126f5565b60405180910390f35b6000634906490660e01b7bffffffffffffffffffffffffffffffffffffffffffffffffffffffff1916827bffffffffffffffffffffffffffffffffffffffffffffffffffffffff191614806104e757506104e68261131c565b5b9050919050565b600b60009054906101000a900473ffffffffffffffffffffffffffffffffffffffff1681565b600b60009054906101000a900473ffffffffffffffffffffffffffffffffffffffff1673ffffffffffffffffffffffffffffffffffffffff163373ffffffffffffffffffffffffffffffffffffffff16146105a4576040517f08c379a000000000000000000000000000000000000000000000000000000000815260040161059b90612aaa565b60405180910390fd5b600073ffffffffffffffffffffffffffffffffffffffff168173ffffffffffffffffffffffffffffffffffffffff1603610613576040517f08c379a000000000000000000000000000000000000000000000000000000000815260040161060a90612b16565b60405180910390fd5b600b60009054906101000a900473ffffffffffffffffffffffffffffffffffffffff1673ffffffffffffffffffffffffffffffffffffffff168173ffffffffffffffffffffffffffffffffffffffff16036106a3576040517f08c379a000000000000000000000000000000000000000000000000000000000815260040161069a90612b82565b60405180910390fd5b6000600b60009054906101000a900473ffffffffffffffffffffffffffffffffffffffff16905081600b60006101000a81548173ffffffffffffffffffffffffffffffffffffffff021916908373ffffffffffffffffffffffffffffffffffffffff1602179055508173ffffffffffffffffffffffffffffffffffffffff168173ffffffffffffffffffffffffffffffffffffffff167f171ccc46ca30ce15b8e391d7e1db8cf7644ed26a313b10df70a92b13da34354160405160405180910390a35050565b60606000805461077890612bd1565b80601f01602080910402602001604051908101604052809291908181526020018280546107a490612bd1565b80156107f15780601f106107c6576101008083540402835291602001916107f1565b820191906000526020600020905b8154815290600101906020018083116107d457829003601f168201915b5050505050905090565b6000610806826113fe565b5061081082611486565b9050919050565b61082982826108246114c3565b6114cb565b5050565b60608060608060006009600a600c600d600b60009054906101000a900473ffffffffffffffffffffffffffffffffffffffff1684805461086c90612bd1565b80601f016020809104026020016040519081016040528092919081815260200182805461089890612bd1565b80156108e55780601f106108ba576101008083540402835291602001916108e5565b820191906000526020600020905b8154815290600101906020018083116108c857829003601f168201915b505050505094508380546108f890612bd1565b80601f016020809104026020016040519081016040528092919081815260200182805461092490612bd1565b80156109715780601f1061094657610100808354040283529160200191610971565b820191906000526020600020905b81548152906001019060200180831161095457829003601f168201915b5050505050935082805461098490612bd1565b80601f01602080910402602001604051908101604052809291908181526020018280546109b090612bd1565b80156109fd5780601f106109d2576101008083540402835291602001916109fd565b820191906000526020600020905b8154815290600101906020018083116109e057829003601f168201915b50505050509250818054610a1090612bd1565b80601f0160208091040260200160405190810160405280929190818152602001828054610a3c90612bd1565b8015610a895780601f10610a5e57610100808354040283529160200191610a89565b820191906000526020600020905b815481529060010190602001808311610a6c57829003601f168201915b50505050509150945094509450945094509091929394565b600073ffffffffffffffffffffffffffffffffffffffff168273ffffffffffffffffffffffffffffffffffffffff1603610b135760006040517f64a0ae92000000000000000000000000000000000000000000000000000000008152600401610b0a919061245b565b60405180910390fd5b6000610b278383610b226114c3565b6114dd565b90508373ffffffffffffffffffffffffffffffffffffffff168173ffffffffffffffffffffffffffffffffffffffff1614610b9d578382826040517f64283d7b000000000000000000000000000000000000000000000000000000008152600401610b9493929190612c02565b60405180910390fd5b50505050565b600c8054610bb090612bd1565b80601f0160208091040260200160405190810160405280929190818152602001828054610bdc90612bd1565b8015610c295780601f10610bfe57610100808354040283529160200191610c29565b820191906000526020600020905b815481529060010190602001808311610c0c57829003601f168201915b505050505081565b610c4c83838360405180602001604052806000815250610e91565b505050565b600d8054610c5e90612bd1565b80601f0160208091040260200160405190810160405280929190818152602001828054610c8a90612bd1565b8015610cd75780601f10610cac57610100808354040283529160200191610cd7565b820191906000526020600020905b815481529060010190602001808311610cba57829003601f168201915b505050505081565b6000610cea826113fe565b9050919050565b60008073ffffffffffffffffffffffffffffffffffffffff168273ffffffffffffffffffffffffffffffffffffffff1603610d645760006040517f89c62b64000000000000000000000000000000000000000000000000000000008152600401610d5b919061245b565b60405180910390fd5b600360008373ffffffffffffffffffffffffffffffffffffffff1673ffffffffffffffffffffffffffffffffffffffff168152602001908152602001600020549050919050565b610db36116f7565b610dbd600061177e565b565b6000600760009054906101000a900473ffffffffffffffffffffffffffffffffffffffff16905090565b606060018054610df890612bd1565b80601f0160208091040260200160405190810160405280929190818152602001828054610e2490612bd1565b8015610e715780601f10610e4657610100808354040283529160200191610e71565b820191906000526020600020905b815481529060010190602001808311610e5457829003601f168201915b5050505050905090565b610e8d610e866114c3565b8383611844565b5050565b610e9c848484610aa1565b610eb0610ea76114c3565b858585856119b3565b50505050565b6060610ec1826113fe565b506000600660008481526020019081526020016000208054610ee290612bd1565b80601f0160208091040260200160405190810160405280929190818152602001828054610f0e90612bd1565b8015610f5b5780601f10610f3057610100808354040283529160200191610f5b565b820191906000526020600020905b815481529060010190602001808311610f3e57829003601f168201915b505050505090506000610f6c611b64565b90506000815103610f81578192505050610fc4565b600082511115610fb6578082604051602001610f9e929190612c75565b60405160208183030381529060405292505050610fc4565b610fbf84611b7b565b925050505b919050565b600a8054610fd690612bd1565b80601f016020809104026020016040519081016040528092919081815260200182805461100290612bd1565b801561104f5780601f106110245761010080835404028352916020019161104f565b820191906000526020600020905b81548152906001019060200180831161103257829003601f168201915b505050505081565b6009805461106490612bd1565b80601f016020809104026020016040519081016040528092919081815260200182805461109090612bd1565b80156110dd5780601f106110b2576101008083540402835291602001916110dd565b820191906000526020600020905b8154815290600101906020018083116110c057829003601f168201915b505050505081565b6000600560008473ffffffffffffffffffffffffffffffffffffffff1673ffffffffffffffffffffffffffffffffffffffff16815260200190815260200160002060008373ffffffffffffffffffffffffffffffffffffffff1673ffffffffffffffffffffffffffffffffffffffff16815260200190815260200160002060009054906101000a900460ff16905092915050565b6111816116f7565b600073ffffffffffffffffffffffffffffffffffffffff168173ffffffffffffffffffffffffffffffffffffffff16036111f35760006040517f1e4fbdf70000000000000000000000000000000000000000000000000000000081526004016111ea919061245b565b60405180910390fd5b6111fc8161177e565b50565b6000600b60009054906101000a900473ffffffffffffffffffffffffffffffffffffffff1673ffffffffffffffffffffffffffffffffffffffff163373ffffffffffffffffffffffffffffffffffffffff1614611291576040517f08c379a000000000000000000000000000000000000000000000000000000000815260040161128890612aaa565b60405180910390fd5b600860008154809291906112a490612cc8565b9190505550600060085490506112ba3382611be4565b6112c48184611cdd565b3373ffffffffffffffffffffffffffffffffffffffff16817f06becd955c918828f6e985541acbf49cc842c9e9bd569fffc7698e721ef135758560405161130b919061255f565b60405180910390a380915050919050565b60007f80ac58cd000000000000000000000000000000000000000000000000000000007bffffffffffffffffffffffffffffffffffffffffffffffffffffffff1916827bffffffffffffffffffffffffffffffffffffffffffffffffffffffff191614806113e757507f5b5e139f000000000000000000000000000000000000000000000000000000007bffffffffffffffffffffffffffffffffffffffffffffffffffffffff1916827bffffffffffffffffffffffffffffffffffffffffffffffffffffffff1916145b806113f757506113f682611d39565b5b9050919050565b60008061140a83611da3565b9050600073ffffffffffffffffffffffffffffffffffffffff168173ffffffffffffffffffffffffffffffffffffffff160361147d57826040517f7e27328900000000000000000000000000000000000000000000000000000000815260040161147491906126f5565b60405180910390fd5b80915050919050565b60006004600083815260200190815260200160002060009054906101000a900473ffffffffffffffffffffffffffffffffffffffff169050919050565b600033905090565b6114d88383836001611de0565b505050565b6000806114e984611da3565b9050600073ffffffffffffffffffffffffffffffffffffffff168373ffffffffffffffffffffffffffffffffffffffff161461152b5761152a818486611fa5565b5b600073ffffffffffffffffffffffffffffffffffffffff168173ffffffffffffffffffffffffffffffffffffffff16146115bc5761156d600085600080611de0565b6001600360008373ffffffffffffffffffffffffffffffffffffffff1673ffffffffffffffffffffffffffffffffffffffff168152602001908152602001600020600082825403925050819055505b600073ffffffffffffffffffffffffffffffffffffffff168573ffffffffffffffffffffffffffffffffffffffff161461163f576001600360008773ffffffffffffffffffffffffffffffffffffffff1673ffffffffffffffffffffffffffffffffffffffff168152602001908152602001600020600082825401925050819055505b846002600086815260200190815260200160002060006101000a81548173ffffffffffffffffffffffffffffffffffffffff021916908373ffffffffffffffffffffffffffffffffffffffff160217905550838573ffffffffffffffffffffffffffffffffffffffff168273ffffffffffffffffffffffffffffffffffffffff167fddf252ad1be2c89b69c2b068fc378daa952ba7f163c4a11628f55a4df523b3ef60405160405180910390a4809150509392505050565b6116ff6114c3565b73ffffffffffffffffffffffffffffffffffffffff1661171d610dbf565b73ffffffffffffffffffffffffffffffffffffffff161461177c576117406114c3565b6040517f118cdaa7000000000000000000000000000000000000000000000000000000008152600401611773919061245b565b60405180910390fd5b565b6000600760009054906101000a900473ffffffffffffffffffffffffffffffffffffffff16905081600760006101000a81548173ffffffffffffffffffffffffffffffffffffffff021916908373ffffffffffffffffffffffffffffffffffffffff1602179055508173ffffffffffffffffffffffffffffffffffffffff168173ffffffffffffffffffffffffffffffffffffffff167f8be0079c531659141344cd1fd0a4f28419497f9722a3daafe3b4186f6b6457e060405160405180910390a35050565b600073ffffffffffffffffffffffffffffffffffffffff168273ffffffffffffffffffffffffffffffffffffffff16036118b557816040517f5b08ba180000000000000000000000000000000000000000000000000000000081526004016118ac919061245b565b60405180910390fd5b80600560008573ffffffffffffffffffffffffffffffffffffffff1673ffffffffffffffffffffffffffffffffffffffff16815260200190815260200160002060008473ffffffffffffffffffffffffffffffffffffffff1673ffffffffffffffffffffffffffffffffffffffff16815260200190815260200160002060006101000a81548160ff0219169083151502179055508173ffffffffffffffffffffffffffffffffffffffff168373ffffffffffffffffffffffffffffffffffffffff167f17307eab39ab6107e8899845ad3d59bd9653f200f220920489ca2b5937696c31836040516119a691906123ff565b60405180910390a3505050565b60008373ffffffffffffffffffffffffffffffffffffffff163b1115611b5d578273ffffffffffffffffffffffffffffffffffffffff1663150b7a02868685856040518563ffffffff1660e01b8152600401611a129493929190612d65565b6020604051808303816000875af1925050508015611a4e57506040513d601f19601f82011682018060405250810190611a4b9190612dc6565b60015b611ad2573d8060008114611a7e576040519150601f19603f3d011682016040523d82523d6000602084013e611a83565b606091505b506000815103611aca57836040517f64a0ae92000000000000000000000000000000000000000000000000000000008152600401611ac1919061245b565b60405180910390fd5b805181602001fd5b63150b7a0260e01b7bffffffffffffffffffffffffffffffffffffffffffffffffffffffff1916817bffffffffffffffffffffffffffffffffffffffffffffffffffffffff191614611b5b57836040517f64a0ae92000000000000000000000000000000000000000000000000000000008152600401611b52919061245b565b60405180910390fd5b505b5050505050565b606060405180602001604052806000815250905090565b6060611b86826113fe565b506000611b91611b64565b90506000815111611bb15760405180602001604052806000815250611bdc565b80611bbb84612069565b604051602001611bcc929190612c75565b6040516020818303038152906040525b915050919050565b600073ffffffffffffffffffffffffffffffffffffffff168273ffffffffffffffffffffffffffffffffffffffff1603611c565760006040517f64a0ae92000000000000000000000000000000000000000000000000000000008152600401611c4d919061245b565b60405180910390fd5b6000611c64838360006114dd565b9050600073ffffffffffffffffffffffffffffffffffffffff168173ffffffffffffffffffffffffffffffffffffffff1614611cd85760006040517f73c6ac6e000000000000000000000000000000000000000000000000000000008152600401611ccf919061245b565b60405180910390fd5b505050565b80600660008481526020019081526020016000209081611cfd9190612f9f565b507ff8e1a15aba9398e019f0b49df1a4fde98ee17ae345cb5f6b5e2c27f5033e8ce782604051611d2d91906126f5565b60405180910390a15050565b60007f01ffc9a7000000000000000000000000000000000000000000000000000000007bffffffffffffffffffffffffffffffffffffffffffffffffffffffff1916827bffffffffffffffffffffffffffffffffffffffffffffffffffffffff1916149050919050565b60006002600083815260200190815260200160002060009054906101000a900473ffffffffffffffffffffffffffffffffffffffff169050919050565b8080611e195750600073ffffffffffffffffffffffffffffffffffffffff168273ffffffffffffffffffffffffffffffffffffffff1614155b15611f4d576000611e29846113fe565b9050600073ffffffffffffffffffffffffffffffffffffffff168373ffffffffffffffffffffffffffffffffffffffff1614158015611e9457508273ffffffffffffffffffffffffffffffffffffffff168173ffffffffffffffffffffffffffffffffffffffff1614155b8015611ea75750611ea581846110e5565b155b15611ee957826040517fa9fbf51f000000000000000000000000000000000000000000000000000000008152600401611ee0919061245b565b60405180910390fd5b8115611f4b57838573ffffffffffffffffffffffffffffffffffffffff168273ffffffffffffffffffffffffffffffffffffffff167f8c5be1e5ebec7d5bd14f71427d1e84f3dd0314c0f7b2291e5b200ac8c7c3b92560405160405180910390a45b505b836004600085815260200190815260200160002060006101000a81548173ffffffffffffffffffffffffffffffffffffffff021916908373ffffffffffffffffffffffffffffffffffffffff16021790555050505050565b611fb0838383612137565b61206457600073ffffffffffffffffffffffffffffffffffffffff168373ffffffffffffffffffffffffffffffffffffffff160361202557806040517f7e27328900000000000000000000000000000000000000000000000000000000815260040161201c91906126f5565b60405180910390fd5b81816040517f177e802f00000000000000000000000000000000000000000000000000000000815260040161205b929190613071565b60405180910390fd5b505050565b606060006001612078846121f8565b01905060008167ffffffffffffffff81111561209757612096612786565b5b6040519080825280601f01601f1916602001820160405280156120c95781602001600182028036833780820191505090505b509050600082602001820190505b60011561212c578080600190039150507f3031323334353637383961626364656600000000000000000000000000000000600a86061a8153600a85816121205761211f61309a565b5b049450600085036120d7575b819350505050919050565b60008073ffffffffffffffffffffffffffffffffffffffff168373ffffffffffffffffffffffffffffffffffffffff16141580156121ef57508273ffffffffffffffffffffffffffffffffffffffff168473ffffffffffffffffffffffffffffffffffffffff1614806121b057506121af84846110e5565b5b806121ee57508273ffffffffffffffffffffffffffffffffffffffff166121d683611486565b73ffffffffffffffffffffffffffffffffffffffff16145b5b90509392505050565b600080600090507a184f03e93ff9f4daa797ed6e38ed64bf6a1f0100000000000000008310612256577a184f03e93ff9f4daa797ed6e38ed64bf6a1f010000000000000000838161224c5761224b61309a565b5b0492506040810190505b6d04ee2d6d415b85acef81000000008310612293576d04ee2d6d415b85acef810000000083816122895761228861309a565b5b0492506020810190505b662386f26fc1000083106122c257662386f26fc1000083816122b8576122b761309a565b5b0492506010810190505b6305f5e10083106122eb576305f5e10083816122e1576122e061309a565b5b0492506008810190505b61271083106123105761271083816123065761230561309a565b5b0492506004810190505b6064831061233357606483816123295761232861309a565b5b0492506002810190505b600a8310612342576001810190505b80915050919050565b6000604051905090565b600080fd5b600080fd5b60007fffffffff0000000000000000000000000000000000000000000000000000000082169050919050565b6123948161235f565b811461239f57600080fd5b50565b6000813590506123b18161238b565b92915050565b6000602082840312156123cd576123cc612355565b5b60006123db848285016123a2565b91505092915050565b60008115159050919050565b6123f9816123e4565b82525050565b600060208201905061241460008301846123f0565b92915050565b600073ffffffffffffffffffffffffffffffffffffffff82169050919050565b60006124458261241a565b9050919050565b6124558161243a565b82525050565b6000602082019050612470600083018461244c565b92915050565b61247f8161243a565b811461248a57600080fd5b50565b60008135905061249c81612476565b92915050565b6000602082840312156124b8576124b7612355565b5b60006124c68482850161248d565b91505092915050565b600081519050919050565b600082825260208201905092915050565b60005b838110156125095780820151818401526020810190506124ee565b60008484015250505050565b6000601f19601f8301169050919050565b6000612531826124cf565b61253b81856124da565b935061254b8185602086016124eb565b61255481612515565b840191505092915050565b600060208201905081810360008301526125798184612526565b905092915050565b6000819050919050565b61259481612581565b811461259f57600080fd5b50565b6000813590506125b18161258b565b92915050565b6000602082840312156125cd576125cc612355565b5b60006125db848285016125a2565b91505092915050565b600080604083850312156125fb576125fa612355565b5b60006126098582860161248d565b925050602061261a858286016125a2565b9150509250929050565b600060a082019050818103600083015261263e8188612526565b905081810360208301526126528187612526565b905081810360408301526126668186612526565b9050818103606083015261267a8185612526565b9050612689608083018461244c565b9695505050505050565b6000806000606084860312156126ac576126ab612355565b5b60006126ba8682870161248d565b93505060206126cb8682870161248d565b92505060406126dc868287016125a2565b9150509250925092565b6126ef81612581565b82525050565b600060208201905061270a60008301846126e6565b92915050565b612719816123e4565b811461272457600080fd5b50565b60008135905061273681612710565b92915050565b6000806040838503121561275357612752612355565b5b60006127618582860161248d565b925050602061277285828601612727565b9150509250929050565b600080fd5b600080fd5b7f4e487b7100000000000000000000000000000000000000000000000000000000600052604160045260246000fd5b6127be82612515565b810181811067ffffffffffffffff821117156127dd576127dc612786565b5b80604052505050565b60006127f061234b565b90506127fc82826127b5565b919050565b600067ffffffffffffffff82111561281c5761281b612786565b5b61282582612515565b9050602081019050919050565b82818337600083830152505050565b600061285461284f84612801565b6127e6565b9050828152602081018484840111156128705761286f612781565b5b61287b848285612832565b509392505050565b600082601f8301126128985761289761277c565b5b81356128a8848260208601612841565b91505092915050565b600080600080608085870312156128cb576128ca612355565b5b60006128d98782880161248d565b94505060206128ea8782880161248d565b93505060406128fb878288016125a2565b925050606085013567ffffffffffffffff81111561291c5761291b61235a565b5b61292887828801612883565b91505092959194509250565b6000806040838503121561294b5761294a612355565b5b60006129598582860161248d565b925050602061296a8582860161248d565b9150509250929050565b600067ffffffffffffffff82111561298f5761298e612786565b5b61299882612515565b9050602081019050919050565b60006129b86129b384612974565b6127e6565b9050828152602081018484840111156129d4576129d3612781565b5b6129df848285612832565b509392505050565b600082601f8301126129fc576129fb61277c565b5b8135612a0c8482602086016129a5565b91505092915050565b600060208284031215612a2b57612a2a612355565b5b600082013567ffffffffffffffff811115612a4957612a4861235a565b5b612a55848285016129e7565b91505092915050565b7f4f6e6c7920636f6c6c656374696f6e206f776e65722063616e206d696e740000600082015250565b6000612a94601e836124da565b9150612a9f82612a5e565b602082019050919050565b60006020820190508181036000830152612ac381612a87565b9050919050565b7f4e6577206f776e65722063616e6e6f74206265207a65726f2061646472657373600082015250565b6000612b006020836124da565b9150612b0b82612aca565b602082019050919050565b60006020820190508181036000830152612b2f81612af3565b9050919050565b7f4e6577206f776e6572206d75737420626520646966666572656e740000000000600082015250565b6000612b6c601b836124da565b9150612b7782612b36565b602082019050919050565b60006020820190508181036000830152612b9b81612b5f565b9050919050565b7f4e487b7100000000000000000000000000000000000000000000000000000000600052602260045260246000fd5b60006002820490506001821680612be957607f821691505b602082108103612bfc57612bfb612ba2565b5b50919050565b6000606082019050612c17600083018661244c565b612c2460208301856126e6565b612c31604083018461244c565b949350505050565b600081905092915050565b6000612c4f826124cf565b612c598185612c39565b9350612c698185602086016124eb565b80840191505092915050565b6000612c818285612c44565b9150612c8d8284612c44565b91508190509392505050565b7f4e487b7100000000000000000000000000000000000000000000000000000000600052601160045260246000fd5b6000612cd382612581565b91507fffffffffffffffffffffffffffffffffffffffffffffffffffffffffffffffff8203612d0557612d04612c99565b5b600182019050919050565b600081519050919050565b600082825260208201905092915050565b6000612d3782612d10565b612d418185612d1b565b9350612d518185602086016124eb565b612d5a81612515565b840191505092915050565b6000608082019050612d7a600083018761244c565b612d87602083018661244c565b612d9460408301856126e6565b8181036060830152612da68184612d2c565b905095945050505050565b600081519050612dc08161238b565b92915050565b600060208284031215612ddc57612ddb612355565b5b6000612dea84828501612db1565b91505092915050565b60008190508160005260206000209050919050565b60006020601f8301049050919050565b600082821b905092915050565b600060088302612e557fffffffffffffffffffffffffffffffffffffffffffffffffffffffffffffffff82612e18565b612e5f8683612e18565b95508019841693508086168417925050509392505050565b6000819050919050565b6000612e9c612e97612e9284612581565b612e77565b612581565b9050919050565b6000819050919050565b612eb683612e81565b612eca612ec282612ea3565b848454612e25565b825550505050565b600090565b612edf612ed2565b612eea818484612ead565b505050565b5b81811015612f0e57612f03600082612ed7565b600181019050612ef0565b5050565b601f821115612f5357612f2481612df3565b612f2d84612e08565b81016020851015612f3c578190505b612f50612f4885612e08565b830182612eef565b50505b505050565b600082821c905092915050565b6000612f7660001984600802612f58565b1980831691505092915050565b6000612f8f8383612f65565b9150826002028217905092915050565b612fa8826124cf565b67ffffffffffffffff811115612fc157612fc0612786565b5b612fcb8254612bd1565b612fd6828285612f12565b600060209050601f8311600181146130095760008415612ff7578287015190505b6130018582612f83565b865550613069565b601f19841661301786612df3565b60005b8281101561303f5784890151825560018201915060208501945060208101905061301a565b8683101561305c5784890151613058601f891682612f65565b8355505b6001600288020188555050505b505050505050565b6000604082019050613086600083018561244c565b61309360208301846126e6565b9392505050565b7f4e487b7100000000000000000000000000000000000000000000000000000000600052601260045260246000fdfea2646970667358221220d699e33d9ba88cb25a326880211138f28f2e89e49033b0e2c6b9ff86df4c5ee664736f6c634300081c0033",
  "linkReferences": {},
  "deployedLinkReferences": {}
}